{
  "contractName": "CertificateRegistry",
  "abi": [
    {
      "anonymous": false,
      "inputs": [
        {
          "indexed": false,
          "internalType": "string",
          "name": "certificateId",
          "type": "string"
        },
        {
          "indexed": false,
          "internalType": "string",
          "name": "certificateHash",
          "type": "string"
        }
      ],
      "name": "CertificateIssued",
      "type": "event"
    },
    {
      "inputs": [
        {
          "internalType": "string",
          "name": "_certificateId",
          "type": "string"
        },
        {
          "internalType": "string",
          "name": "_certificateHash",
          "type": "string"
        }
      ],
      "name": "issueCertificate",
      "outputs": [],
      "stateMutability": "nonpayable",
      "type": "function"
    },
    {
      "inputs": [
        {
          "internalType": "string",
          "name": "_certificateId",
          "type": "string"
        }
      ],
      "name": "verifyCertificate",
      "outputs": [
        {
          "internalType": "string",
          "name": "",
          "type": "string"
        }
      ],
      "stateMutability": "view",
      "type": "function",
      "constant": true
    }
  ],
  "bytecode": "0x608060405234801561001057600080fd5b506108dc806100206000396000f3fe608060405234801561001057600080fd5b50600436106100365760003560e01c8063211bbe711461003b5780638b23d87514610057575b600080fd5b61005560048036038101906100509190610366565b610087565b005b610071600480360381019061006c91906103de565b61015c565b60405161007e91906104a6565b60405180910390f35b600080836040516100989190610504565b908152602001604051809103902080546100b19061054a565b9050146100f3576040517f08c379a00000000000000000000000000000000000000000000000000000000081526004016100ea906105c7565b60405180910390fd5b806000836040516101049190610504565b9081526020016040518091039020908161011e919061079d565b507f3ca9b880c8645562f6f6dae2ec8c6da0e58ddcc82681ed677eb65aaaaf587742828260405161015092919061086f565b60405180910390a15050565b606060008260405161016e9190610504565b908152602001604051809103902080546101879061054a565b80601f01602080910402602001604051908101604052809291908181526020018280546101b39061054a565b80156102005780601f106101d557610100808354040283529160200191610200565b820191906000526020600020905b8154815290600101906020018083116101e357829003601f168201915b50505050509050919050565b6000604051905090565b600080fd5b600080fd5b600080fd5b600080fd5b6000601f19601f8301169050919050565b7f4e487b7100000000000000000000000000000000000000000000000000000000600052604160045260246000fd5b6102738261022a565b810181811067ffffffffffffffff821117156102925761029161023b565b5b80604052505050565b60006102a561020c565b90506102b1828261026a565b919050565b600067ffffffffffffffff8211156102d1576102d061023b565b5b6102da8261022a565b9050602081019050919050565b82818337600083830152505050565b6000610309610304846102b6565b61029b565b90508281526020810184848401111561032557610324610225565b5b6103308482856102e7565b509392505050565b600082601f83011261034d5761034c610220565b5b813561035d8482602086016102f6565b91505092915050565b6000806040838503121561037d5761037c610216565b5b600083013567ffffffffffffffff81111561039b5761039a61021b565b5b6103a785828601610338565b925050602083013567ffffffffffffffff8111156103c8576103c761021b565b5b6103d485828601610338565b9150509250929050565b6000602082840312156103f4576103f3610216565b5b600082013567ffffffffffffffff8111156104125761041161021b565b5b61041e84828501610338565b91505092915050565b600081519050919050565b600082825260208201905092915050565b60005b83811015610461578082015181840152602081019050610446565b60008484015250505050565b600061047882610427565b6104828185610432565b9350610492818560208601610443565b61049b8161022a565b840191505092915050565b600060208201905081810360008301526104c0818461046d565b905092915050565b600081905092915050565b60006104de82610427565b6104e881856104c8565b93506104f8818560208601610443565b80840191505092915050565b600061051082846104d3565b915081905092915050565b7f4e487b7100000000000000000000000000000000000000000000000000000000600052602260045260246000fd5b6000600282049050600182168061056257607f821691505b6020821081036105755761057461051b565b5b50919050565b7f436572746966696361746520616c726561647920657869737473000000000000600082015250565b60006105b1601a83610432565b91506105bc8261057b565b602082019050919050565b600060208201905081810360008301526105e0816105a4565b9050919050565b60008190508160005260206000209050919050565b60006020601f8301049050919050565b600082821b905092915050565b6000600883026106497fffffffffffffffffffffffffffffffffffffffffffffffffffffffffffffffff8261060c565b610653868361060c565b95508019841693508086168417925050509392505050565b6000819050919050565b6000819050919050565b600061069a6106956106908461066b565b610675565b61066b565b9050919050565b6000819050919050565b6106b48361067f565b6106c86106c0826106a1565b848454610619565b825550505050565b600090565b6106dd6106d0565b6106e88184846106ab565b505050565b5b8181101561070c576107016000826106d5565b6001810190506106ee565b5050565b601f82111561075157610722816105e7565b61072b846105fc565b8101602085101561073a578190505b61074e610746856105fc565b8301826106ed565b50505b505050565b600082821c905092915050565b600061077460001984600802610756565b1980831691505092915050565b600061078d8383610763565b9150826002028217905092915050565b6107a682610427565b67ffffffffffffffff8111156107bf576107be61023b565b5b6107c9825461054a565b6107d4828285610710565b600060209050601f83116001811461080757600084156107f5578287015190505b6107ff8582610781565b865550610867565b601f198416610815866105e7565b60005b8281101561083d57848901518255600182019150602085019450602081019050610818565b8683101561085a5784890151610856601f891682610763565b8355505b6001600288020188555050505b505050505050565b60006040820190508181036000830152610889818561046d565b9050818103602083015261089d818461046d565b9050939250505056fea26469706673582212203effdfc7521f330880a1f9b01d647e245583f34f183055c034a2a732a8f1f2a164736f6c63430008110033",
  "immutableReferences": {},
  "source": "// SPDX-License-Identifier: MIT\r\npragma solidity ^0.8.0;\r\n\r\ncontract CertificateRegistry {\r\n\r\n    mapping(string => string) private certificates;\r\n\r\n    event CertificateIssued(string certificateId, string certificateHash);\r\n\r\n    function issueCertificate(string memory _certificateId, string memory _certificateHash) public {\r\n        require(bytes(certificates[_certificateId]).length == 0, \"Certificate already exists\");\r\n\r\n        certificates[_certificateId] = _certificateHash;\r\n\r\n        emit CertificateIssued(_certificateId, _certificateHash);\r\n    }\r\n\r\n    function verifyCertificate(string memory _certificateId) public view returns (string memory) {\r\n        return certificates[_certificateId];\r\n    }\r\n}",
  "sourcePath": "C:\\Users\\HP\\OneDrive\\Desktop\\certificate-auth-blockchain\\smart-contract\\contracts\\CertificateRegistry.sol",
  "compiler": {
    "name": "solc",
    "version": "0.8.17+commit.8df45f5f.Emscripten.clang"
  },
  "schemaVersion": "3.4.16",
  "updatedAt": "2026-02-25T17:18:22.815Z",
  "networkType": "ethereum",
  "devdoc": {
    "kind": "dev",
    "methods": {},
    "version": 1
  },
  "userdoc": {
    "kind": "user",
    "methods": {},
    "version": 1
  }
}